{
  "contractName": "MultiSignWallet",
  "abi": [
    {
      "constant": true,
      "inputs": [
        {
          "internalType": "uint256",
          "name": "",
          "type": "uint256"
        }
      ],
      "name": "owners",
      "outputs": [
        {
          "internalType": "address",
          "name": "",
          "type": "address"
        }
      ],
      "payable": false,
      "stateMutability": "view",
      "type": "function"
    },
    {
      "constant": true,
      "inputs": [
        {
          "internalType": "address",
          "name": "",
          "type": "address"
        }
      ],
      "name": "isOwner",
      "outputs": [
        {
          "internalType": "bool",
          "name": "",
          "type": "bool"
        }
      ],
      "payable": false,
      "stateMutability": "view",
      "type": "function"
    },
    {
      "constant": true,
      "inputs": [
        {
          "internalType": "uint256",
          "name": "",
          "type": "uint256"
        }
      ],
      "name": "transactions",
      "outputs": [
        {
          "internalType": "address",
          "name": "to",
          "type": "address"
        },
        {
          "internalType": "uint256",
          "name": "value",
          "type": "uint256"
        },
        {
          "internalType": "bytes",
          "name": "data",
          "type": "bytes"
        },
        {
          "internalType": "bool",
          "name": "executed",
          "type": "bool"
        },
        {
          "internalType": "uint256",
          "name": "numConfirmations",
          "type": "uint256"
        }
      ],
      "payable": false,
      "stateMutability": "view",
      "type": "function"
    },
    {
      "constant": true,
      "inputs": [],
      "name": "numConfirmationsRequired",
      "outputs": [
        {
          "internalType": "uint256",
          "name": "",
          "type": "uint256"
        }
      ],
      "payable": false,
      "stateMutability": "view",
      "type": "function"
    },
    {
      "inputs": [
        {
          "internalType": "address[]",
          "name": "_owners",
          "type": "address[]"
        },
        {
          "internalType": "uint256",
          "name": "_numConfirmationsRequired",
          "type": "uint256"
        }
      ],
      "payable": false,
      "stateMutability": "nonpayable",
      "type": "constructor"
    },
    {
      "payable": true,
      "stateMutability": "payable",
      "type": "fallback"
    },
    {
      "anonymous": false,
      "inputs": [
        {
          "indexed": true,
          "internalType": "address",
          "name": "owner",
          "type": "address"
        },
        {
          "indexed": true,
          "internalType": "uint256",
          "name": "txIndex",
          "type": "uint256"
        },
        {
          "indexed": true,
          "internalType": "address",
          "name": "to",
          "type": "address"
        },
        {
          "indexed": false,
          "internalType": "uint256",
          "name": "value",
          "type": "uint256"
        },
        {
          "indexed": false,
          "internalType": "bytes",
          "name": "data",
          "type": "bytes"
        }
      ],
      "name": "SubmitTransaction",
      "type": "event"
    },
    {
      "anonymous": false,
      "inputs": [
        {
          "indexed": true,
          "internalType": "address",
          "name": "owner",
          "type": "address"
        },
        {
          "indexed": true,
          "internalType": "uint256",
          "name": "txIndex",
          "type": "uint256"
        }
      ],
      "name": "ConfirmTransaction",
      "type": "event"
    },
    {
      "anonymous": false,
      "inputs": [
        {
          "indexed": true,
          "internalType": "address",
          "name": "owner",
          "type": "address"
        },
        {
          "indexed": true,
          "internalType": "uint256",
          "name": "txIndex",
          "type": "uint256"
        }
      ],
      "name": "ExecuteTransaction",
      "type": "event"
    },
    {
      "anonymous": false,
      "inputs": [
        {
          "indexed": true,
          "internalType": "address",
          "name": "owner",
          "type": "address"
        },
        {
          "indexed": true,
          "internalType": "uint256",
          "name": "txIndex",
          "type": "uint256"
        }
      ],
      "name": "RevokeTransaction",
      "type": "event"
    },
    {
      "anonymous": false,
      "inputs": [
        {
          "indexed": true,
          "internalType": "address",
          "name": "owner",
          "type": "address"
        },
        {
          "indexed": false,
          "internalType": "uint256",
          "name": "amount",
          "type": "uint256"
        },
        {
          "indexed": false,
          "internalType": "uint256",
          "name": "balance",
          "type": "uint256"
        }
      ],
      "name": "Deposit",
      "type": "event"
    },
    {
      "constant": false,
      "inputs": [
        {
          "internalType": "address",
          "name": "_to",
          "type": "address"
        },
        {
          "internalType": "uint256",
          "name": "_value",
          "type": "uint256"
        },
        {
          "internalType": "bytes",
          "name": "_data",
          "type": "bytes"
        }
      ],
      "name": "submitTransactions",
      "outputs": [],
      "payable": false,
      "stateMutability": "nonpayable",
      "type": "function"
    },
    {
      "constant": false,
      "inputs": [
        {
          "internalType": "uint256",
          "name": "_txIndex",
          "type": "uint256"
        }
      ],
      "name": "confirmTransaction",
      "outputs": [],
      "payable": false,
      "stateMutability": "nonpayable",
      "type": "function"
    },
    {
      "constant": false,
      "inputs": [
        {
          "internalType": "uint256",
          "name": "_txIndex",
          "type": "uint256"
        }
      ],
      "name": "executeTransaction",
      "outputs": [],
      "payable": false,
      "stateMutability": "nonpayable",
      "type": "function"
    },
    {
      "constant": false,
      "inputs": [
        {
          "internalType": "uint256",
          "name": "_txIndex",
          "type": "uint256"
        }
      ],
      "name": "revokeTransaction",
      "outputs": [],
      "payable": false,
      "stateMutability": "nonpayable",
      "type": "function"
    },
    {
      "constant": true,
      "inputs": [],
      "name": "getOwner",
      "outputs": [
        {
          "internalType": "address[]",
          "name": "",
          "type": "address[]"
        }
      ],
      "payable": false,
      "stateMutability": "view",
      "type": "function"
    },
    {
      "constant": true,
      "inputs": [],
      "name": "getTransactionCount",
      "outputs": [
        {
          "internalType": "uint256",
          "name": "",
          "type": "uint256"
        }
      ],
      "payable": false,
      "stateMutability": "view",
      "type": "function"
    },
    {
      "constant": true,
      "inputs": [
        {
          "internalType": "uint256",
          "name": "_txIndex",
          "type": "uint256"
        }
      ],
      "name": "getTransaction",
      "outputs": [
        {
          "internalType": "address",
          "name": "to",
          "type": "address"
        },
        {
          "internalType": "uint256",
          "name": "value",
          "type": "uint256"
        },
        {
          "internalType": "bytes",
          "name": "data",
          "type": "bytes"
        },
        {
          "internalType": "bool",
          "name": "executed",
          "type": "bool"
        },
        {
          "internalType": "uint256",
          "name": "numConfirmations",
          "type": "uint256"
        }
      ],
      "payable": false,
      "stateMutability": "view",
      "type": "function"
    }
  ],
  "bytecode": "0x60806040523480156200001157600080fd5b5060405162001c3b38038062001c3b833981810160405260408110156200003757600080fd5b81019080805160405193929190846401000000008211156200005857600080fd5b838201915060208201858111156200006f57600080fd5b82518660208202830111640100000000821117156200008d57600080fd5b8083526020830192505050908051906020019060200280838360005b83811015620000c6578082015181840152602081019050620000a9565b5050505090500160405260200180519060200190929190505050600082511162000158576040517f08c379a000000000000000000000000000000000000000000000000000000000815260040180806020018281038252600e8152602001807f6f776e657220726571756972656400000000000000000000000000000000000081525060200191505060405180910390fd5b6000811180156200016a575081518111155b6200017457600080fd5b60008090505b8251811015620003cf5760008382815181106200019357fe5b60200260200101519050600073ffffffffffffffffffffffffffffffffffffffff168173ffffffffffffffffffffffffffffffffffffffff16141562000241576040517f08c379a00000000000000000000000000000000000000000000000000000000081526004018080602001828103825260148152602001807f6164647265737320696e206e6f742076616c696400000000000000000000000081525060200191505060405180910390fd5b600260008273ffffffffffffffffffffffffffffffffffffffff1673ffffffffffffffffffffffffffffffffffffffff16815260200190815260200160002060009054906101000a900460ff161562000302576040517f08c379a00000000000000000000000000000000000000000000000000000000081526004018080602001828103825260138152602001807f6f776e6572206973206e6f7420756e697175650000000000000000000000000081525060200191505060405180910390fd5b6001600260008373ffffffffffffffffffffffffffffffffffffffff1673ffffffffffffffffffffffffffffffffffffffff16815260200190815260200160002060006101000a81548160ff02191690831515021790555060008190806001815401808255809150509060018203906000526020600020016000909192909190916101000a81548173ffffffffffffffffffffffffffffffffffffffff021916908373ffffffffffffffffffffffffffffffffffffffff160217905550505080806001019150506200017a565b5080600181905550505061185280620003e96000396000f3fe60806040526004361061009c5760003560e01c8063893d20e811610064578063893d20e8146103555780639ace38c2146103c1578063c01a8c84146104c1578063d0549b85146104fc578063ee22610b14610527578063fcbe8ef3146105625761009c565b8063025e7c271461010b5780632e7700f0146101865780632f54bf6e146101b157806333ea3dc81461021a578063735631ad1461031a575b3373ffffffffffffffffffffffffffffffffffffffff167f90890809c654f11d6e72a28fa60149770a0d11ec6c92319d6ceb2bb0a4ea1a15343073ffffffffffffffffffffffffffffffffffffffff1631604051808381526020018281526020019250505060405180910390a2005b34801561011757600080fd5b506101446004803603602081101561012e57600080fd5b8101908080359060200190929190505050610654565b604051808273ffffffffffffffffffffffffffffffffffffffff1673ffffffffffffffffffffffffffffffffffffffff16815260200191505060405180910390f35b34801561019257600080fd5b5061019b610690565b6040518082815260200191505060405180910390f35b3480156101bd57600080fd5b50610200600480360360208110156101d457600080fd5b81019080803573ffffffffffffffffffffffffffffffffffffffff16906020019092919050505061069d565b604051808215151515815260200191505060405180910390f35b34801561022657600080fd5b506102536004803603602081101561023d57600080fd5b81019080803590602001909291905050506106bd565b604051808673ffffffffffffffffffffffffffffffffffffffff1673ffffffffffffffffffffffffffffffffffffffff1681526020018581526020018060200184151515158152602001838152602001828103825285818151815260200191508051906020019080838360005b838110156102db5780820151818401526020810190506102c0565b50505050905090810190601f1680156103085780820380516001836020036101000a031916815260200191505b50965050505050505060405180910390f35b34801561032657600080fd5b506103536004803603602081101561033d57600080fd5b81019080803590602001909291905050506107d9565b005b34801561036157600080fd5b5061036a610b65565b6040518080602001828103825283818151815260200191508051906020019060200280838360005b838110156103ad578082015181840152602081019050610392565b505050509050019250505060405180910390f35b3480156103cd57600080fd5b506103fa600480360360208110156103e457600080fd5b8101908080359060200190929190505050610bf3565b604051808673ffffffffffffffffffffffffffffffffffffffff1673ffffffffffffffffffffffffffffffffffffffff1681526020018581526020018060200184151515158152602001838152602001828103825285818151815260200191508051906020019080838360005b83811015610482578082015181840152602081019050610467565b50505050905090810190601f1680156104af5780820380516001836020036101000a031916815260200191505b50965050505050505060405180910390f35b3480156104cd57600080fd5b506104fa600480360360208110156104e457600080fd5b8101908080359060200190929190505050610cfb565b005b34801561050857600080fd5b5061051161108a565b6040518082815260200191505060405180910390f35b34801561053357600080fd5b506105606004803603602081101561054a57600080fd5b8101908080359060200190929190505050611090565b005b34801561056e57600080fd5b506106526004803603606081101561058557600080fd5b81019080803573ffffffffffffffffffffffffffffffffffffffff16906020019092919080359060200190929190803590602001906401000000008111156105cc57600080fd5b8201836020820111156105de57600080fd5b8035906020019184600183028401116401000000008311171561060057600080fd5b91908080601f016020809104026020016040519081016040528093929190818152602001838380828437600081840152601f19601f8201169050808301925050505050505091929192905050506114cd565b005b6000818154811061066157fe5b906000526020600020016000915054906101000a900473ffffffffffffffffffffffffffffffffffffffff1681565b6000600380549050905090565b60026020528060005260406000206000915054906101000a900460ff1681565b60008060606000806000600387815481106106d457fe5b906000526020600020906006020190508060000160009054906101000a900473ffffffffffffffffffffffffffffffffffffffff168160010154826002018360030160009054906101000a900460ff168460050154828054600181600116156101000203166002900480601f0160208091040260200160405190810160405280929190818152602001828054600181600116156101000203166002900480156107be5780601f10610793576101008083540402835291602001916107be565b820191906000526020600020905b8154815290600101906020018083116107a157829003601f168201915b50505050509250955095509550955095505091939590929450565b80600381815481106107e757fe5b906000526020600020906006020160030160009054906101000a900460ff1615610879576040517f08c379a000000000000000000000000000000000000000000000000000000000815260040180806020018281038252601c8152602001807f7472616e73616374696f6e20616c72656164792065786563757465640000000081525060200191505060405180910390fd5b600260003373ffffffffffffffffffffffffffffffffffffffff1673ffffffffffffffffffffffffffffffffffffffff16815260200190815260200160002060009054906101000a900460ff16610938576040517f08c379a000000000000000000000000000000000000000000000000000000000815260040180806020018281038252600d8152602001807f6e6f7420746865206f776e65720000000000000000000000000000000000000081525060200191505060405180910390fd5b816003805490508111156109b4576040517f08c379a000000000000000000000000000000000000000000000000000000000815260040180806020018281038252601a8152602001807f7472616e73616374696f6e20616c72656164792065786973747300000000000081525060200191505060405180910390fd5b6000600384815481106109c357fe5b90600052602060002090600602019050600384815481106109e057fe5b906000526020600020906006020160040160003373ffffffffffffffffffffffffffffffffffffffff1673ffffffffffffffffffffffffffffffffffffffff16815260200190815260200160002060009054906101000a900460ff16610aae576040517f08c379a00000000000000000000000000000000000000000000000000000000081526004018080602001828103825260198152602001807f7472616e73616374696f6e206e6f7420636f6e6669726d65640000000000000081525060200191505060405180910390fd5b60008160040160003373ffffffffffffffffffffffffffffffffffffffff1673ffffffffffffffffffffffffffffffffffffffff16815260200190815260200160002060006101000a81548160ff02191690831515021790555060018160050160008282540392505081905550833373ffffffffffffffffffffffffffffffffffffffff167f1ad870073a851011d852bccd8634c29c7c0ac2265ba96d2bab01285001a465a860405160405180910390a350505050565b60606000805480602002602001604051908101604052809291908181526020018280548015610be957602002820191906000526020600020905b8160009054906101000a900473ffffffffffffffffffffffffffffffffffffffff1673ffffffffffffffffffffffffffffffffffffffff1681526020019060010190808311610b9f575b5050505050905090565b60038181548110610c0057fe5b90600052602060002090600602016000915090508060000160009054906101000a900473ffffffffffffffffffffffffffffffffffffffff1690806001015490806002018054600181600116156101000203166002900480601f016020809104026020016040519081016040528092919081815260200182805460018160011615610100020316600290048015610cd85780601f10610cad57610100808354040283529160200191610cd8565b820191906000526020600020905b815481529060010190602001808311610cbb57829003601f168201915b5050505050908060030160009054906101000a900460ff16908060050154905085565b600260003373ffffffffffffffffffffffffffffffffffffffff1673ffffffffffffffffffffffffffffffffffffffff16815260200190815260200160002060009054906101000a900460ff16610dba576040517f08c379a000000000000000000000000000000000000000000000000000000000815260040180806020018281038252600d8152602001807f6e6f7420746865206f776e65720000000000000000000000000000000000000081525060200191505060405180910390fd5b8060038181548110610dc857fe5b906000526020600020906006020160030160009054906101000a900460ff1615610e5a576040517f08c379a000000000000000000000000000000000000000000000000000000000815260040180806020018281038252601c8152602001807f7472616e73616374696f6e20616c72656164792065786563757465640000000081525060200191505060405180910390fd5b8160038181548110610e6857fe5b906000526020600020906006020160040160003373ffffffffffffffffffffffffffffffffffffffff1673ffffffffffffffffffffffffffffffffffffffff16815260200190815260200160002060009054906101000a900460ff1615610f37576040517f08c379a000000000000000000000000000000000000000000000000000000000815260040180806020018281038252601d8152602001807f7472616e73616374696f6e20616c726561647920636f6e6669726d656400000081525060200191505060405180910390fd5b82600380549050811115610fb3576040517f08c379a000000000000000000000000000000000000000000000000000000000815260040180806020018281038252601a8152602001807f7472616e73616374696f6e20616c72656164792065786973747300000000000081525060200191505060405180910390fd5b600060038581548110610fc257fe5b906000526020600020906006020190506001816005016000828254019250508190555060018160040160003373ffffffffffffffffffffffffffffffffffffffff1673ffffffffffffffffffffffffffffffffffffffff16815260200190815260200160002060006101000a81548160ff021916908315150217905550843373ffffffffffffffffffffffffffffffffffffffff167f5cbe105e36805f7820e291f799d5794ff948af2a5f664e580382defb6339004160405160405180910390a35050505050565b60015481565b600260003373ffffffffffffffffffffffffffffffffffffffff1673ffffffffffffffffffffffffffffffffffffffff16815260200190815260200160002060009054906101000a900460ff1661114f576040517f08c379a000000000000000000000000000000000000000000000000000000000815260040180806020018281038252600d8152602001807f6e6f7420746865206f776e65720000000000000000000000000000000000000081525060200191505060405180910390fd5b806003818154811061115d57fe5b906000526020600020906006020160030160009054906101000a900460ff16156111ef576040517f08c379a000000000000000000000000000000000000000000000000000000000815260040180806020018281038252601c8152602001807f7472616e73616374696f6e20616c72656164792065786563757465640000000081525060200191505060405180910390fd5b8160038054905081111561126b576040517f08c379a000000000000000000000000000000000000000000000000000000000815260040180806020018281038252601a8152602001807f7472616e73616374696f6e20616c72656164792065786973747300000000000081525060200191505060405180910390fd5b60006003848154811061127a57fe5b9060005260206000209060060201905060015481600501541015611306576040517f08c379a00000000000000000000000000000000000000000000000000000000081526004018080602001828103825260198152602001807f63616e6e6f7420657863757465207472616e73616374696f6e0000000000000081525060200191505060405180910390fd5b60018160030160006101000a81548160ff02191690831515021790555060008160000160009054906101000a900473ffffffffffffffffffffffffffffffffffffffff1673ffffffffffffffffffffffffffffffffffffffff1682600101548360020160405180828054600181600116156101000203166002900480156113c45780601f106113a25761010080835404028352918201916113c4565b820191906000526020600020905b8154815290600101906020018083116113b0575b505091505060006040518083038185875af1925050503d8060008114611406576040519150601f19603f3d011682016040523d82523d6000602084013e61140b565b606091505b5050905080611482576040517f08c379a00000000000000000000000000000000000000000000000000000000081526004018080602001828103825260128152602001807f7472616e73616374696f6e206661696c6564000000000000000000000000000081525060200191505060405180910390fd5b843373ffffffffffffffffffffffffffffffffffffffff167f5445f318f4f5fcfb66592e68e0cc5822aa15664039bd5f0ffde24c5a8142b1ac60405160405180910390a35050505050565b600260003373ffffffffffffffffffffffffffffffffffffffff1673ffffffffffffffffffffffffffffffffffffffff16815260200190815260200160002060009054906101000a900460ff1661158c576040517f08c379a000000000000000000000000000000000000000000000000000000000815260040180806020018281038252600d8152602001807f6e6f7420746865206f776e65720000000000000000000000000000000000000081525060200191505060405180910390fd5b6000600380549050905060036040518060a001604052808673ffffffffffffffffffffffffffffffffffffffff16815260200185815260200184815260200160001515815260200160008152509080600181540180825580915050906001820390600052602060002090600602016000909192909190915060008201518160000160006101000a81548173ffffffffffffffffffffffffffffffffffffffff021916908373ffffffffffffffffffffffffffffffffffffffff160217905550602082015181600101556040820151816002019080519060200190611671929190611778565b5060608201518160030160006101000a81548160ff021916908315150217905550608082015181600501555050508373ffffffffffffffffffffffffffffffffffffffff16813373ffffffffffffffffffffffffffffffffffffffff167fd5a05bf70715ad82a09a756320284a1b54c9ff74cd0f8cce6219e79b563fe59d86866040518083815260200180602001828103825283818151815260200191508051906020019080838360005b8381101561173757808201518184015260208101905061171c565b50505050905090810190601f1680156117645780820380516001836020036101000a031916815260200191505b50935050505060405180910390a450505050565b828054600181600116156101000203166002900490600052602060002090601f016020900481019282601f106117b957805160ff19168380011785556117e7565b828001600101855582156117e7579182015b828111156117e65782518255916020019190600101906117cb565b5b5090506117f491906117f8565b5090565b61181a91905b808211156118165760008160009055506001016117fe565b5090565b9056fea265627a7a7231582031561f4a688ec9ecf152d2f50602f33958c88a4d7a9d69956bf30333b828d27964736f6c634300050b0032",
  "source": "pragma solidity ^0.5.11;\r\n\r\n\r\ncontract MultiSignWallet {\r\n\r\n    //state variables\r\n\r\n    //store owners\r\n    address[] public owners;\r\n    // store number of confirmation required\r\n    uint public numConfirmationsRequired;\r\n    // keep track owners\r\n    mapping(address => bool) public isOwner;\r\n\r\n    //Event\r\n    event SubmitTransaction(address indexed owner,\r\n                            uint indexed txIndex,\r\n                            address indexed to,\r\n                            uint value,\r\n                            bytes data);\r\n\r\n    // events in solidity are the interfaces with EVM loggin functionalities\r\n    // event is a way of communicating with the client side and the smart contracts deployed BC;\r\n    event ConfirmTransaction(address indexed owner, uint indexed txIndex);\r\n    event ExecuteTransaction(address indexed owner, uint indexed txIndex);\r\n    event RevokeTransaction(address indexed owner, uint indexed txIndex);\r\n    event Deposit (address indexed owner, uint amount, uint balance);\r\n\r\n    // create struck of transaction and store it inside the array of transactions.\r\n    struct Transaction {\r\n        address to;\r\n        uint value;\r\n        bytes data;\r\n        bool executed; // => check if the transaction is stored or not\r\n        mapping(address => bool) isConfirmed; // => when the owner approuve transations we need to store that in mapping value;\r\n        uint numConfirmations; // => num of approuvals\r\n    }\r\n\r\n    // keep track of all transactions type of Transaction\r\n    Transaction[] public transactions;\r\n\r\n\r\n//****************************** modifiers ***************************************//\r\n    modifier txExists(uint _txIndex) {\r\n        require (_txIndex <= transactions.length, \"transaction already exists\");\r\n        _;\r\n    }\r\n\r\n    modifier notConfirmed (uint _txIndex) {\r\n        require(!transactions[_txIndex].isConfirmed[msg.sender], \"transaction already confirmed\");\r\n        _;\r\n    }\r\n\r\n\r\n    modifier notExcuted(uint _txIndex) {\r\n        require(!transactions[_txIndex].executed, \"transaction already executed\");\r\n        _;\r\n    }\r\n\r\n    modifier onlyOwner () {\r\n        require(isOwner[msg.sender], \"not the owner\");\r\n        _;\r\n    }\r\n\r\n\r\n    \r\n    //****************************** constructor method ***********************//\r\n\r\n    constructor (address[] memory _owners,uint _numConfirmationsRequired) public {\r\n\r\n        require(_owners.length > 0, \"owner required\");\r\n        require(_numConfirmationsRequired > 0 && _numConfirmationsRequired <= _owners.length);\r\n\r\n        // store each owner in the owners array\r\n        for(uint i = 0; i < _owners.length; i++) {\r\n                address owner = _owners[i];\r\n            //check if the owner address is valid\r\n            require(owner != address(0), \"address in not valid\");\r\n            // check that there is not a duplicate owner\r\n            require(!isOwner[owner], \"owner is not unique\");\r\n\r\n            isOwner[owner] = true;\r\n            owners.push(owner);\r\n        }\r\n        numConfirmationsRequired = _numConfirmationsRequired;\r\n    }\r\n\r\n    //****************************** Deposit ***********************//\r\n\r\n    function () payable external {\r\n        emit Deposit(msg.sender, msg.value, address(this).balance);\r\n    }\r\n\r\n    //****************************** submit transactions ***********************//\r\n\r\n    function submitTransactions(address _to, uint _value, bytes memory _data)\r\n    onlyOwner public {\r\n        \r\n        // Get the current transaction using transactions array\r\n        uint txIndex = transactions.length; //0\r\n         \r\n        // push the data to transactions array\r\n        transactions.push(Transaction({\r\n            to : _to,\r\n            value : _value,\r\n            data : _data,\r\n            executed: false,\r\n            numConfirmations:0\r\n        }));\r\n\r\n        // _to _value _data represent the input that was add to this function\r\n        emit SubmitTransaction(msg.sender, txIndex, _to, _value, _data);\r\n\r\n    }\r\n\r\n\r\n\r\n\r\n    //****************************** confirmation transactions ***********************//\r\n\r\n    function confirmTransaction (uint _txIndex) public \r\n    onlyOwner\r\n    notExcuted(_txIndex)\r\n    notConfirmed(_txIndex)\r\n    txExists(_txIndex) {\r\n    \r\n    //to update the transaction struct we need to get the transaction at txIndex\r\n    Transaction storage transaction = transactions[_txIndex];\r\n\r\n        transaction.numConfirmations += 1; \r\n        transaction.isConfirmed[msg.sender] = true;\r\n        emit ConfirmTransaction(msg.sender, _txIndex);\r\n    }\r\n\r\n\r\n    //****************************** confirmation transactions ***********************//\r\n    \r\n    function executeTransaction (uint _txIndex)\r\n    onlyOwner\r\n    notExcuted(_txIndex)\r\n    txExists(_txIndex) public {\r\n        \r\n        Transaction storage transaction = transactions[_txIndex];\r\n\r\n        // check if the number of confirmation required is correct\r\n        require(\r\n            transaction.numConfirmations >= numConfirmationsRequired,\r\n            \"cannot excute transaction\"\r\n            );\r\n\r\n        transaction.executed = true;\r\n\r\n        // excute the transaction using call methods\r\n        (bool success, ) = transaction.to.call.value(transaction.value)(transaction.data);\r\n        require(success, \"transaction failed\");\r\n        \r\n        emit ExecuteTransaction(msg.sender, _txIndex);\r\n    }\r\n\r\n    //****************************** Revoke Transaction***********************//\r\n    function revokeTransaction (uint _txIndex)\r\n     public\r\n    notExcuted(_txIndex)\r\n    onlyOwner\r\n    txExists(_txIndex) {\r\n\r\n        Transaction storage transaction = transactions[_txIndex];\r\n\r\n        // msg.sender has already confirm the trsanction\r\n        require(transactions[_txIndex].isConfirmed[msg.sender], \"transaction not confirmed\");\r\n\r\n        transaction.isConfirmed[msg.sender] = false;\r\n        transaction.numConfirmations -= 1;\r\n        emit RevokeTransaction(msg.sender, _txIndex);\r\n\r\n    }\r\n\r\n\r\n    //****************************** Get Owners***********************//\r\n    function getOwner() public view returns (address[] memory) {\r\n        return owners;\r\n    }\r\n\r\n    //****************************** Get Transaction count***********************//\r\n    function getTransactionCount() public view returns (uint) {\r\n        return transactions.length;\r\n    }\r\n\r\n    //****************************** Get Transaction ***********************//\r\n    function getTransaction(uint _txIndex) public view returns (\r\n        address to, uint value, bytes memory data, bool executed, uint numConfirmations) {\r\n            \r\n    Transaction storage transaction = transactions[_txIndex];\r\n        return (\r\n            transaction.to,\r\n            transaction.value,\r\n            transaction.data,\r\n            transaction.executed,\r\n            transaction.numConfirmations\r\n        );\r\n    \r\n    }\r\n\r\n}\r\n\r\n",
  "sourcePath": "E:\\Open the door\\Learn And Grow Up\\Learn And Grow Up\\Crypto WORLD\\Cyrpto projects\\Multi-sign-wallet\\contracts\\MultiSignWallet.sol",
  "compiler": {
    "name": "solc",
    "version": "0.5.11+commit.c082d0b4.Emscripten.clang"
  },
  "schemaVersion": "3.4.4",
  "updatedAt": "2022-01-17T15:20:53.567Z",
  "networkType": "ethereum",
  "devdoc": {
    "methods": {}
  },
  "userdoc": {
    "methods": {}
  }
}